{
  "_format": "hh-sol-artifact-1",
  "contractName": "PerformanceAppraisal",
  "sourceName": "contracts/PerformanceAppraisal.sol",
  "abi": [
    {
      "anonymous": false,
      "inputs": [
        {
          "indexed": true,
          "internalType": "uint256",
          "name": "id",
          "type": "uint256"
        },
        {
          "indexed": false,
          "internalType": "string",
          "name": "name",
          "type": "string"
        },
        {
          "indexed": false,
          "internalType": "uint256",
          "name": "score",
          "type": "uint256"
        }
      ],
      "name": "EmployeeAdded",
      "type": "event"
    },
    {
      "anonymous": false,
      "inputs": [
        {
          "indexed": true,
          "internalType": "uint256",
          "name": "id",
          "type": "uint256"
        },
        {
          "indexed": false,
          "internalType": "uint256",
          "name": "newScore",
          "type": "uint256"
        },
        {
          "indexed": false,
          "internalType": "address",
          "name": "ratedBy",
          "type": "address"
        }
      ],
      "name": "EmployeeRated",
      "type": "event"
    },
    {
      "inputs": [
        {
          "internalType": "string",
          "name": "_name",
          "type": "string"
        }
      ],
      "name": "addEmployee",
      "outputs": [],
      "stateMutability": "nonpayable",
      "type": "function"
    },
    {
      "inputs": [],
      "name": "employeeCount",
      "outputs": [
        {
          "internalType": "uint256",
          "name": "",
          "type": "uint256"
        }
      ],
      "stateMutability": "view",
      "type": "function"
    },
    {
      "inputs": [
        {
          "internalType": "uint256",
          "name": "",
          "type": "uint256"
        }
      ],
      "name": "employees",
      "outputs": [
        {
          "internalType": "uint256",
          "name": "id",
          "type": "uint256"
        },
        {
          "internalType": "string",
          "name": "name",
          "type": "string"
        },
        {
          "internalType": "uint256",
          "name": "score",
          "type": "uint256"
        },
        {
          "internalType": "address",
          "name": "ratedBy",
          "type": "address"
        }
      ],
      "stateMutability": "view",
      "type": "function"
    },
    {
      "inputs": [
        {
          "internalType": "uint256",
          "name": "_id",
          "type": "uint256"
        }
      ],
      "name": "getEmployee",
      "outputs": [
        {
          "internalType": "string",
          "name": "",
          "type": "string"
        },
        {
          "internalType": "uint256",
          "name": "",
          "type": "uint256"
        },
        {
          "internalType": "address",
          "name": "",
          "type": "address"
        }
      ],
      "stateMutability": "view",
      "type": "function"
    },
    {
      "inputs": [
        {
          "internalType": "uint256",
          "name": "_id",
          "type": "uint256"
        },
        {
          "internalType": "uint256",
          "name": "_newScore",
          "type": "uint256"
        }
      ],
      "name": "rateEmployee",
      "outputs": [],
      "stateMutability": "nonpayable",
      "type": "function"
    }
  ],
  "bytecode": "0x6080604052348015600f57600080fd5b50610f018061001f6000396000f3fe608060405234801561001057600080fd5b50600436106100575760003560e01c80632d2d03a61461005c5780634739326b146100785780638a8e2e5b146100ab5780639047bf58146100c7578063bca9a5c5146100e5575b600080fd5b6100766004803603810190610071919061077b565b610117565b005b610092600480360381019061008d91906107fa565b610247565b6040516100a294939291906108f6565b60405180910390f35b6100c560048036038101906100c09190610942565b61032f565b005b6100cf610486565b6040516100dc9190610982565b60405180910390f35b6100ff60048036038101906100fa91906107fa565b61048c565b60405161010e9392919061099d565b60405180910390f35b600060405180608001604052806001548152602001838152602001600081526020013373ffffffffffffffffffffffffffffffffffffffff16815250908060018154018082558091505060019003906000526020600020906004020160009091909190915060008201518160000155602082015181600101908161019b9190610be7565b506040820151816002015560608201518160030160006101000a81548173ffffffffffffffffffffffffffffffffffffffff021916908373ffffffffffffffffffffffffffffffffffffffff16021790555050506001547f556c96b931720d3114f337f47f9dbc5376485d20c5168da73d053d8ac7aa683f826000604051610224929190610cf4565b60405180910390a26001600081548092919061023f90610d53565b919050555050565b6000818154811061025757600080fd5b906000526020600020906004020160009150905080600001549080600101805461028090610a0a565b80601f01602080910402602001604051908101604052809291908181526020018280546102ac90610a0a565b80156102f95780601f106102ce576101008083540402835291602001916102f9565b820191906000526020600020905b8154815290600101906020018083116102dc57829003601f168201915b5050505050908060020154908060030160009054906101000a900473ffffffffffffffffffffffffffffffffffffffff16905084565b6000805490508210610376576040517f08c379a000000000000000000000000000000000000000000000000000000000815260040161036d90610de7565b60405180910390fd5b60648111156103ba576040517f08c379a00000000000000000000000000000000000000000000000000000000081526004016103b190610e53565b60405180910390fd5b80600083815481106103cf576103ce610e73565b5b90600052602060002090600402016002018190555033600083815481106103f9576103f8610e73565b5b906000526020600020906004020160030160006101000a81548173ffffffffffffffffffffffffffffffffffffffff021916908373ffffffffffffffffffffffffffffffffffffffff160217905550817feec529aaf851aa1e00cca12ac4e25f5cefbd1136920c9eb8710a0c7635af4fe7823360405161047a929190610ea2565b60405180910390a25050565b60015481565b606060008060008054905084106104d8576040517f08c379a00000000000000000000000000000000000000000000000000000000081526004016104cf90610de7565b60405180910390fd5b60008085815481106104ed576104ec610e73565b5b90600052602060002090600402016040518060800160405290816000820154815260200160018201805461052090610a0a565b80601f016020809104026020016040519081016040528092919081815260200182805461054c90610a0a565b80156105995780601f1061056e57610100808354040283529160200191610599565b820191906000526020600020905b81548152906001019060200180831161057c57829003601f168201915b50505050508152602001600282015481526020016003820160009054906101000a900473ffffffffffffffffffffffffffffffffffffffff1673ffffffffffffffffffffffffffffffffffffffff1673ffffffffffffffffffffffffffffffffffffffff16815250509050806020015181604001518260600151935093509350509193909250565b6000604051905090565b600080fd5b600080fd5b600080fd5b600080fd5b6000601f19601f8301169050919050565b7f4e487b7100000000000000000000000000000000000000000000000000000000600052604160045260246000fd5b6106888261063f565b810181811067ffffffffffffffff821117156106a7576106a6610650565b5b80604052505050565b60006106ba610621565b90506106c6828261067f565b919050565b600067ffffffffffffffff8211156106e6576106e5610650565b5b6106ef8261063f565b9050602081019050919050565b82818337600083830152505050565b600061071e610719846106cb565b6106b0565b90508281526020810184848401111561073a5761073961063a565b5b6107458482856106fc565b509392505050565b600082601f83011261076257610761610635565b5b813561077284826020860161070b565b91505092915050565b6000602082840312156107915761079061062b565b5b600082013567ffffffffffffffff8111156107af576107ae610630565b5b6107bb8482850161074d565b91505092915050565b6000819050919050565b6107d7816107c4565b81146107e257600080fd5b50565b6000813590506107f4816107ce565b92915050565b6000602082840312156108105761080f61062b565b5b600061081e848285016107e5565b91505092915050565b610830816107c4565b82525050565b600081519050919050565b600082825260208201905092915050565b60005b83811015610870578082015181840152602081019050610855565b60008484015250505050565b600061088782610836565b6108918185610841565b93506108a1818560208601610852565b6108aa8161063f565b840191505092915050565b600073ffffffffffffffffffffffffffffffffffffffff82169050919050565b60006108e0826108b5565b9050919050565b6108f0816108d5565b82525050565b600060808201905061090b6000830187610827565b818103602083015261091d818661087c565b905061092c6040830185610827565b61093960608301846108e7565b95945050505050565b600080604083850312156109595761095861062b565b5b6000610967858286016107e5565b9250506020610978858286016107e5565b9150509250929050565b60006020820190506109976000830184610827565b92915050565b600060608201905081810360008301526109b7818661087c565b90506109c66020830185610827565b6109d360408301846108e7565b949350505050565b7f4e487b7100000000000000000000000000000000000000000000000000000000600052602260045260246000fd5b60006002820490506001821680610a2257607f821691505b602082108103610a3557610a346109db565b5b50919050565b60008190508160005260206000209050919050565b60006020601f8301049050919050565b600082821b905092915050565b600060088302610a9d7fffffffffffffffffffffffffffffffffffffffffffffffffffffffffffffffff82610a60565b610aa78683610a60565b95508019841693508086168417925050509392505050565b6000819050919050565b6000610ae4610adf610ada846107c4565b610abf565b6107c4565b9050919050565b6000819050919050565b610afe83610ac9565b610b12610b0a82610aeb565b848454610a6d565b825550505050565b600090565b610b27610b1a565b610b32818484610af5565b505050565b5b81811015610b5657610b4b600082610b1f565b600181019050610b38565b5050565b601f821115610b9b57610b6c81610a3b565b610b7584610a50565b81016020851015610b84578190505b610b98610b9085610a50565b830182610b37565b50505b505050565b600082821c905092915050565b6000610bbe60001984600802610ba0565b1980831691505092915050565b6000610bd78383610bad565b9150826002028217905092915050565b610bf082610836565b67ffffffffffffffff811115610c0957610c08610650565b5b610c138254610a0a565b610c1e828285610b5a565b600060209050601f831160018114610c515760008415610c3f578287015190505b610c498582610bcb565b865550610cb1565b601f198416610c5f86610a3b565b60005b82811015610c8757848901518255600182019150602085019450602081019050610c62565b86831015610ca45784890151610ca0601f891682610bad565b8355505b6001600288020188555050505b505050505050565b6000819050919050565b6000610cde610cd9610cd484610cb9565b610abf565b6107c4565b9050919050565b610cee81610cc3565b82525050565b60006040820190508181036000830152610d0e818561087c565b9050610d1d6020830184610ce5565b9392505050565b7f4e487b7100000000000000000000000000000000000000000000000000000000600052601160045260246000fd5b6000610d5e826107c4565b91507fffffffffffffffffffffffffffffffffffffffffffffffffffffffffffffffff8203610d9057610d8f610d24565b5b600182019050919050565b7f456d706c6f79656520646f6573206e6f74206578697374000000000000000000600082015250565b6000610dd1601783610841565b9150610ddc82610d9b565b602082019050919050565b60006020820190508181036000830152610e0081610dc4565b9050919050565b7f53636f7265206d757374206265206265747765656e203020616e642031303000600082015250565b6000610e3d601f83610841565b9150610e4882610e07565b602082019050919050565b60006020820190508181036000830152610e6c81610e30565b9050919050565b7f4e487b7100000000000000000000000000000000000000000000000000000000600052603260045260246000fd5b6000604082019050610eb76000830185610827565b610ec460208301846108e7565b939250505056fea2646970667358221220b752850f9501328458e9588b475250118aa3e7304faa3e56a1e4a9bcfa71b0dd64736f6c634300081c0033",
  "linkReferences": {},
  "deployedLinkReferences": {}
}